:03002300020026B2
:100026009204C0E0C083C08210980610991E020098
:1000360054E599758300850982F0D20005095309B4
:100046003FE50965087002D202020054C201D0825F
:10005600D083D0E0A2043230000CC0E0E509650888
:100066007002C200D0E020012EC0E0C083C082151D
:100076000DE50D701C530A3FE50B650A6013758389
:1000860001850A82E0F599850C0D050A530A3FD2CF
:1000960001D082D083D0E022C2AC9204C083C08259
:1000A600C0E0758300850882E0FF050853083FD04D
:1000B600E0D082D083A204D2AC22C0E0C083C0824A
:1000C600C2AC530B3FE50B04543F650A7005D203DF
:1000D6000200E6758301850B82EFF0050B530B3F9B
:1000E600D2ACD082D083D0E022C0E0C083C082C030
:1000F600078A8389827400936007FF1200C0A38079
:10010600F4D007D082D083D0E022C0E0C083C08282
:10011600C0078A838982E060E8FF1200C0A380F6E8
:10012600D007D082D083D0E02293CF1200C0CF2256
:10013600C0E0C082C083900219EF54F0C412012FB0
:10014600EF540F12012FD083D082D0E022C0E0C03E
:1001560082C083900219EE54F0C412012F90021946
:10016600EE540F12012F900219EF54F0C412012F12
:10017600900219EF540F12012FD083D082D0E022C3
:10018600C0E0C082C083900219EC54F0C412012F63
:10019600900219EC540F12012F900219ED54F0C47D
:1001A60012012F900219ED540F12012F900219EE31
:1001B60054F0C412012F900219EE540F12012F9021
:1001C6000219EF54F0C412012F900219EF540F12C6
:1001D600012FD083D082D0E022750800750900C2B5
:1001E60000C20222850908C200C20222750A0075F1
:1001F6000B00C201C203750C01750D0022850B0AA6
:10020600C201C203221201DF1201F2227E2BDEFEA0
:10021600DFFA22303132333435363738394142430A
:0302260044454606
:10084B000D0A000D0A53706B4D656E750D0A0A008B
:10085B00662046696C650D0A006520456E640D0ABD
:10086B0000732053746172740D0A00612053696D1B
:10087B00756C0D0A00722052616E64616C0D0A007A
:10088B000D0A536F756E642066696C652073746F07
:10089B007065642E0D0A000D0A456E6420746F6E30
:1008AB00652073746F7065642E0D0A000D0A537406
:1008BB0061727420736F756E642073746F706564EE
:1008CB002E0D0A000D0A53696D756C2073746F70D1
:1008DB0065642E0D0A000D0A52616E64616C207303
:1008EB00746F7065642E0D0A00000000000000009C
:1008FB0000000000007C7C7C7C7C7C7B7A7B7876A7
:10090B00876E727F6797896B577A948C876C757635
:10091B00898288668A727E7C7F726D8C6F917F7BF9
:10092B009267896D966C8877887A6C72877B7A8AE6
:10093B00858067727E8E7A9C7E7DA86C8BB386A138
:10094B007A89879288BA947090969A8E63A78281DF
:10095B00859D87776D8B8A54807F8378826D6C6CD5
:10096B00638D75685C795F5F5D6A6D6E4F6E6E5DF2
:10097B006E636E6D6E66766A77707A805280637C7A
:10098B008660929C786BA88C9B9C7C8CA874A5979A
:10099B008EA686999D80809A8B808E809A7A85828E
:1009AB007F717581867F645F6C716473746C6D5835
:1009BB006F7257727360725F6B6D6B62856A824385
:1009CB0067686D81387A4E796B866F6B4F74A17443
:1009DB00778F7366788CCD7C6C8C996E848E9E9998
:1009EB0090AF7887838BB09789A29C598E7E949A0F
:1009FB008490967B7F82817B7889857E70647D77FE
:100A0B00775B747B576C76624377796F6F39578559
:100A1B002A6E73687B4E699D5E5D7C69808B689FD7
:100A2B00746D918085877CA09E75898A939E839334
:100A3B00959A85899394929A8E917E81949F788FC3
:100A4B0095997B5089C2876E72837A908F9F885558
:100A5B009299927279A6766984AC84736CAC7F5C44
:100A6B0091889D8E8D8071637897987A7A8B736B52
:100A7B0067708C816F82766663696E7E726D7E6243
:100A8B005F687B6E5B826F99696D7B8E518A8E93EB
:100A9B006D88688F7582A26D7F7AB09289728B8F09
:100AAB0089AF87A36D849194806C899398758678B0
:100ABB007E6D7B82816F5F7B7A726B8567634D89FD
:100ACB00756857826F725360931C8B53A9559A7537
:100ADB0083776795639F797C89876C818DA0947EE2
:100AEB009B827C849F99C98B986F847D98A9998BE5
:100AFB0088AF6A7A7487A287918C754C826F957CCC
:100B0B0078766C6361775F63687D6E715D674D812D
:100B1B0062817C4B6A68806A7B66826D5C908E8298
:100B2B0053997B8F7B88969074959B67867AB69644
:100B3B008E78AA5C918F9299738C70AB7AA1798E17
:100B4B006E7E818084567F769E3560776448486AD6
:100B5B00476A467E53483E72655C5A7E57415B70CE
:100B6B00A25C6F67754587858397848476AE68A989
:100B7B007EA8A197A0878E7CADA7B984B093918BEB
:100B8B00929E989090A67C8777817D7F7EA06767E9
:100B9B0068815368736E7B4C31755F5F6D4C705B16
:100BAB0040748C406067638E6B62C65A7A72767F34
:100BBB007D7AA48E658D8BA184968BAB74829AA063
:100BCB008A91A193947E91A6858C90A55C6A949C46
:100BDB00884D8C848A777F7B786386926F7D6B6C74
:100BEB0078617B9B83777184718776879BA0896AF9
:100BFB0079798094979A986C857F737295988E7695
:100C0B007A856968739B816D797E64666D78776789
:100C1B008B6171496E7B9A527871814C8B6A8C6CAB
:060C2B007AA75D817195BE
:100C310089797B978376928BA1887694888B809330
:100C410094947B918B87748F7F986A878D70807065
:100C510096746E6A8262747C93827A7F83925375F2
:100C61007D86918178834A697E8A7F69685B69683C
:100C71007E7B6E6261785A71508A83785472674FB5
:100C81006F748E7476676B676884867772A0827FD3
:100C91006C6F8F9C7DA28A7D8679979080A79886BC
:100CA100928C7A9C6FA89BB45F8C61897D94877FBD
:100CB100826FA26E85528B5C827B7D646F696E5CF4
:100CC100647D6E7160775D6E7B66677A7276735252
:100CD1009278758180797E6C81928095BE74998EAF
:100CE1009BEB6B94B18B98A59CA67C81C0907D9267
:100CF10075867391867F62696C7B656F5679825EBA
:100D010051585E4A7E5B7E50585C56505C6D6768F8
:100D110052896960736286786D878756A0768C8B5D
:100D21008198939E86B23DA897BC99A3739D959295
:100D31009DB780919880B285717E8E7D9F826487F8
:100D4100638272676A7E55815B6A676364606A6DFC
:100D510069546E437F6D6B6C65706C696C856F91C6
:100D61007C6E8B97847B788D91A79B729A809799E3
:100D7100B0909185819E6FA5928F7F917B78867AC5
:100D8100A792A15A6D70738198768774627B6568AA
:100D9100608B7C8D6975645F617D986B776F726024
:100DA1007C717E6D80886F6A72859F647D89865CA7
:100DB1009E679B7583867DA088855D7D6C6A5C6E70
:100DC1007E8B606F746668697E7C858679437F68F7
:100DD1007997788B798D6C8E6B8890938F959071C4
:100DE1008E77989B9388937E878E838A917F9B8B46
:100DF100717D7B6B9188836A75459C636E826B669E
:100E01006D6679867D755C4A5C4F695E68664E6386
:100E11004B5953586F6A536665636A5B66896C7296
:100E2100777F757F837F908778B37599929670C12C
:100E31008FA6A98F66B087AC9D79BC7D9D9CA16C66
:100E41008D78999679888372875C7379687B7C71D8
:100E51006B5D646C5E656C705F506C6970695C6E33
:100E610067646175617A758C70648096866C759122
:100E7100879D847F9B6591929E707E8070787D9620
:100E8100886B687D766F826A887986436962677A42
:100E910078707476587B5D69828A79747976766820
:100EA10088868A6C8D887A7E8D839A6695A85597F7
:100EB100938974A38F9988699F7F8074957A7F7DC8
:100EC100877C776F5C9D6A747F746291597C6751EE
:100ED100877C6D6973448D63777B6C7C6C836B8AD3
:100EE1007A83748D7C9E736F9F7F8C905B919461EC
:100EF100B96E8487A0839B95859154D393B68D9BBE
:100F01007684ADBDB75F9B769C8B8E95AE89947DC3
:100F11007F766597918D828759685C727B766F5970
:100F21007A5D6E486C6372646469366761794D7C81
:100F310063725A685F687A877A85537A996287A261
:100F41007F8C6D94A38D869C8A979B98A291928F9A
:100F51009B7D9092AD888B8486967D8475936E90EF
:100F610064847B709C6E67656C6E74617B7784644E
:100F71005E8C917D62787D738B7D92795F8D8D8D95
:100F81007D8E8673758B9C806F748E76658678985E
:100F9100818E657465708B7D78737B5B6B5D747F0F
:100FA10077756E7470726A6C7A92737E73777882D9
:100FB1007B81858A7290678B918D7AAB938F86A0A6
:100FC1005FA87F8C9669AA8298728E4F8D7C748AF5
:100FD100786D7F687A67527667836F725A6A516C4F
:100FE1006E72685C736B6C657D7570677B8A4C7E15
:100FF1006B9C86958062928B987CA168B58EA08946
:10100100788E939C959971875E8B9AAD788E896D58
:06101100628C6686958CDE
:101017009048656C91737C9F6C714F626F6B72A780
:10102700806760637C5E848E89737A6E796B767F66
:1010370077A36F737A7177989788719D728E6471B1
:101047009286937597866B998B76727C887A85786A
:101057007D936D78607475838084805A816F757411
:1010670081807A6773787B6E7D788174686E658E10
:101077007D6756637D5E5C72715B9C746D665B8693
:101087008C90869D7A6C78929C998F90967185AD9D
:10109700978BAC9C8885988A9E7BA5AE8E767C8A3A
:1010A700827A8A9E7A827478854E7987726B7661A6
:1010B700755C5681755E62764A6B617B4C6A7178A6
:1010C70084495788725C9566A061778F83718B918D
:1010D7007C8E849E8B849A8286988EAA8D92947336
:1010E700A986897F917BA7747B9A6A8E7A8A7475A1
:1010F7005F7C776C955F65718E70615D846898839E
:10110700796F559A84997A8F567A6CA0918F8A7FD6
:101117008473918E8D6FA69D617E85808C838DAD46
:101127004F76807A747E8295646D9565754C828260
:101137006E6A7A71617264827263688A479A74818F
:101147004F8F887F9A606F896878B566927D74B390
:101157007F76938B85918F9E797F9285817C859B06
:101167008661A26C93667983896E83765C7F7193BF
:101177006A7372746B707E82805388678E6F556D49
:101187007356B7726173458A70877A80576E5E7A35
:1011970096697B7680636E766F729B8D6D675682DC
:1011A7007B7A87906E7A6C7D7961998C85877A8551
:1011B7007B4BA394817F8380977387A54A93827E15
:1011C7008074879B7D74956C8B75817E7974847B25
:1011D7007879828569756580836E747868767E6EA6
:1011E700965E7B81686D7E7089746CA76974707D6B
:1011F7007D86739474738D7D86778782866D957FE0
:101207007F807F967A888487718980947180857DB5
:10121700887D84828472936D81806D8B7B7A7E7EDC
:1012270069846B8E7873767583707B757E6385783A
:101237007671727D786E7888637B729175777B8023
:10124700737C82858064967B8483818484758A908D
:101257006D8E7E888583838D6E8889818974858765
:10126700837E8D7284787D8B788074817A82758491
:101277007177767981627C747B7283737C697684FB
:101287006F797878767C71956879837A807A7E7EB3
:101297007E759B78847D848382808B82778B829214
:1012A7007E8982868289877F827C8F7B8C7C838004
:1012B700817B897A78817090777B7A7B707E757F66
:1012C7007A63837679747A747D69817E6C777480AA
:1012D700757B7785687D7E827B73837D7F7B887A4C
:1012E70082758D827F847E8481848289748C7E85D9
:1012F700897A84837F8288798A748184807F807ADF
:101307007F827688757C7A7F7B7C797C7A74857717
:101317007E6E7D7A7B79807875797A856D807A7C27
:1013270079817C82757B8B77817C807C7E7B9279CF
:101337007C857D877D828182778E7E84807D857F97
:10134700817F827A837B887F7F7D7D857C7F7D819E
:1013570076817B887A77837D7B7B7E7A7D6F857CC0
:10136700797B7C7B7B7A7E816A827C807B7B7C7FBE
:10137700767E82787F78817C817D827A7F80808289
:1013870079827B837F847D817C83827E8579817F5F
:101397008080837B847D7F877A817E7F7E847B8448
:1013A700787E847D7F7D7E7C7E7A87797B7B7F7D5F
:1013B7007B7D7D7C75837C7F767E7F7C7D7E7F7960
:1013C7007C7B86787F7D7E7D7E7F827D7B847C842F
:1013D7007D7E81807D84807E817B857F807E827D0E
:1013E700837E82837A817F847D7F7D827B80817FFC
:0613F7007E7B837E7F7CFB
:1013FD00807B7F7B827E79807B7E827D7F7F7B8100
:10140D008078827A80807B7E7F7A7F7F7B81787FF8
:10141D007E7F7D7F7C7E7C7D817C7F7A817E7E7EE2
:10142D00807C7D7E808177817F7F7E817E827980C9
:10143D00847B807E807F7E7E857B7E817F817D7FAC
:10144D00807F7D857D807E7E817F7F7E807D817E9C
:10145D00827E7F7D7E817D7F7F7E7D817D827C7D95
:10146D00817E7E7F7E7E7F7A857D7D7F7E7E7F7D88
:10147D00807F79827E807E7F7E807D81807B7F7E76
:10148D00827E7F7F807C8080817E7D827E817F8059
:10149D007F807D827F7E807C817F7E80807C817E4F
:1014AD0080817B7F7F7F7F807D807B7F817E7E7E45
:1014BD007F7E7F7D817C7E7E807F7D7F7F7E7D8137
:1014CD007F7F7B807F7E7F7F7F7E7E7F827C807F24
:1014DD007F807F7F817E7F827E817E7F80807F8106
:1014ED007F7F807E827F7F7E807F807F807F7E80FA
:1014FD007F817D7F7F7F7E807F7F7E7E827E7F7FEF
:10150D007F7E7F7E817E7E807E7F7F7F7F7F7D81E0
:10151D007F7E7F7F807F7F7F807D807F807F7F80CC
:10152D007F807F807F807F807F807F7F807F7F80B7
:10153D00807F807F807F7F807F7F7F7F7F807E80A9
:10154D007F7F7F7F7F7F7F7F807F7F7F807F7F7F9C
:10155D00807F7F807F7F7F807F7F7F807F7F7F8089
:07156D00807F8000000000F8
:10022900E4F5A8D2B0D2B1759840758921F58775E2
:100239008BFB758DFBD28EC2A9C2ABC2ADC298C26F
:1002490099C2D3C2D4D29CF5C875CAFF75CBF3C283
:08025900CAC2ADD2ACD2AF2243
:10026100A2A7B350077F5F1200C080057F5812001C
:10027100C0A2A6B350077F5F1200C080057F58124D
:1002810000C0A2A5B350077F5F1200C080057F5850
:100291001200C0A2A4B350077F5F1200C080057F87
:1002A100581200C0A2A3B350077F5F1200C080059F
:1002B1007F581200C0A2A2B350077F5F1200C08016
:1002C100057F581200C0A2A1B350077F5F1200C082
:1002D10080057F581200C0A2A0B350077F5F1200B3
:1002E100C080057F581200C07B057A08794B120047
:0202F100EF22FA
:1002F300750E32E4F510F511C3E5119480E5109401
:100303000C502B74F42511F582E5103408F583E4C1
:1003130093F5A00511E51170020510E4FEFFC3EF8C
:10032300950EEE940050D10FBF00010E80F0C2A0D5
:0103330022A7
:10033400750E28E4FDE4F510F511B2A00511E511E0
:1003440070020510E4FEFFE50EFBC3EF9BEE940084
:1003540050070FBF00010E80EE0511E51170020574
:1003640010C3E5119470E510941740CEE4FEFF0F1E
:10037400BF00010EBE75F8BF30F50DBD03B7C2A0B6
:010384002256
:10038500750E0EE4F510F511AE10AF117C007D056C
:10039500121574EF1392A00511E51170020510E412
:1003A500FFFEC3EF950EEE940050070FBF00010E40
:1003B50080F00511E51170020510C3E51194D0E533
:0803C50010940740C3C2A022FE
:1003CD00300A05750E028003750E05E4F510F51162
:1003DD00AE10AF117C007D05121574EF1392A005C0
:1003ED0011E51170020510E4FFFEC3EF950EEE94BA
:1003FD000050070FBF00010E80F00511E5117002CE
:10040D000510C3E51194D0E510940740C3C2A02296
:10041D00E4F513750E32E4F510F511AE10AF117C45
:10042D00007D05121574EF1392A00511E5117002F0
:10043D000510E4FAFBC3EB950EEA940050070BBBD5
:10044D0000010A80F00511E51170020510C3E511D8
:10045D009414E510940040C3750E5EE4F510F5118B
:10046D00AE10AF117C007D05121574EF1392A0052F
:10047D0011E51170020510E4FAFBC3EB950EEA9439
:10048D000050070BBB00010A80F00511E511700249
:10049D000510C3E5119414E510940040C3750E8A40
:1004AD00E4F510F511AE10AF117C007D0512157439
:1004BD00EF1392A00511E51170020510E4FAFBC3CC
:1004CD00EB950EEA940050070BBB00010A80F00576
:1004DD0011E51170020510C3E5119414E510940097
:1004ED0040C3750EEEE4F510F511AE10AF117C00A2
:1004FD007D05121574EF1392A00511E5117002051B
:10050D0010E4FAFBC3EB950EEA940050070BBB0009
:10051D00010A80F00511E51170020510C3E5119473
:10052D0014E510940040C3750EC2E4F510F511AE3C
:10053D0010AF117C007D05121574EF1392A00511FB
:10054D00E51170020510E4FAFBC3EB950EEA940079
:10055D0050070BBB00010A80F00511E51170020573
:10056D0010C3E5119414E510940040C3750EF4E426
:10057D00F510F511AE10AF117C007D05121574EF5D
:10058D001392A00511E51170020510E4FAFBC3EBFF
:10059D00950EEA940050070BBB00010A80F005117F
:1005AD00E51170020510C3E5119414E51094004097
:1005BD00C3750E90E4F510F511AE10AF117C007DF2
:1005CD0005121574EF1392A00511E51170020510B7
:1005DD00E4FAFBC3EB950EEA940050070BBB000148
:1005ED000A80F00511E51170020510C3E511941490
:1005FD00E510940040C3750E2CE4F510F511AE1006
:10060D00AF117C007D05121574EF1392A00511E555
:10061D001170020510E4FAFBC3EB950EEA9400503D
:10062D00070BBB00010A80F00511E51170020510E2
:10063D00C3E5119414E510940040C3C2A00513E561
:09064D001364056003020420227D
:10065600C2A7D281120385E4FBFA0BBB00010ABADA
:1006660075F8BB30F5E4F9E9C3950F5015A2A672EB
:10067600A75009120385C2A7C2A680061202F30973
:1006860080E5A2A7B3B0A65011E4FAFB0BBB0001AC
:0D0696000ABA75F8BB30F5120334C2812298
:1006A30012022912020B7B057A08794E1200EF7BA6
:1006B300057A08795B1200EF7B057A0879641200EA
:1006C300EF7B057A08796C1200EF7B057A0879765F
:1006D3001200EF7B057A0879801200EFC208750ECD
:1006E30032750F32C205C209C207C206E4F5A0F58E
:1006F30080D2822000030207DB12009E8F12EF12CA
:1007030015C907732B07882D073630073E31074677
:1007130032074E33075634075E35076536076C37A5
:1007230007C16107A56507976607CF7207B3730013
:100733000007DBB2A01202610207DBB2A112026161
:100743000207DBB2A21202610207DBB2A31202614B
:100753000207DBB2A41202610207DBB2A512026137
:100763008076B2A6120261806FB2A712026180681E
:10077300C3E50E94FEE494FF5004050E050EAF0E80
:100783001201368053E50E6004150E150EAF0E12DE
:10079300013680441202F37B057A08798B1200EF4D
:1007A30080361203347B057A0879A21200EF802881
:1007B3001203857B057A0879B71200EF801A1206B7
:1007C300567B057A0879CF1200EF800C12041D7B4B
:1007D300057A0879E11200EF30A706D207C2A78095
:1007E30002C207A206300701B35007A207920612FE
:1007F3000385A209300501B3500BA2059209A20596
:10080300920A1203CD30A106750F0F12065630A2BD
:1008130006750F1612065630A306750F1E120656DE
:1008230030A406750F2512065630A506750F2D1236
:10083300065630A606D205D2818004C205C28112B3
:08084300005DB2960206F622E8
:03000000020003F8
:0C000300787FE4F6D8FD7581210206A389
:10157400BC000BBE0029EF8DF084FFADF022E4CC5B
:10158400F875F008EF2FFFEE33FEEC33FCEE9DEC24
:10159400984005FCEE9DFE0FD5F0E9E4CEFD22ED6A
:1015A400F8F5F0EE8420D21CFEADF075F008EF2FB4
:1015B400FFED33FD4007985006D5F0F222C398FDA5
:0515C4000FD5F0EA2242
:1015C900D083D082F8E4937012740193700DA3A3B1
:1015D90093F8740193F5828883E4737402936860C5
:0615E900EFA3A3A380DFC5
:00000001FF
